{
  "contractName": "Lottery",
  "abi": [
    {
      "inputs": [],
      "stateMutability": "nonpayable",
      "type": "constructor"
    },
    {
      "inputs": [],
      "name": "manager",
      "outputs": [
        {
          "internalType": "address",
          "name": "",
          "type": "address"
        }
      ],
      "stateMutability": "view",
      "type": "function",
      "constant": true
    },
    {
      "inputs": [
        {
          "internalType": "uint256",
          "name": "",
          "type": "uint256"
        }
      ],
      "name": "participants",
      "outputs": [
        {
          "internalType": "address payable",
          "name": "",
          "type": "address"
        }
      ],
      "stateMutability": "view",
      "type": "function",
      "constant": true
    },
    {
      "stateMutability": "payable",
      "type": "receive",
      "payable": true
    },
    {
      "inputs": [],
      "name": "getBal",
      "outputs": [
        {
          "internalType": "uint256",
          "name": "",
          "type": "uint256"
        }
      ],
      "stateMutability": "view",
      "type": "function",
      "constant": true
    },
    {
      "inputs": [],
      "name": "random",
      "outputs": [
        {
          "internalType": "uint256",
          "name": "",
          "type": "uint256"
        }
      ],
      "stateMutability": "view",
      "type": "function",
      "constant": true
    },
    {
      "inputs": [],
      "name": "selectWinner",
      "outputs": [],
      "stateMutability": "nonpayable",
      "type": "function"
    }
  ],
  "bytecode": "0x608060405234801561001057600080fd5b50336000806101000a81548173ffffffffffffffffffffffffffffffffffffffff021916908373ffffffffffffffffffffffffffffffffffffffff1602179055506107f9806100606000396000f3fe60806040526004361061004e5760003560e01c806325caa2621461010657806333a99e041461013157806335c1d34914610148578063481c6a75146101855780635ec01e4d146101b057610101565b366101015767016345785d8a0000341461009d576040517f08c379a00000000000000000000000000000000000000000000000000000000081526004016100949061055d565b60405180910390fd5b6001339080600181540180825580915050600190039060005260206000200160009091909190916101000a81548173ffffffffffffffffffffffffffffffffffffffff021916908373ffffffffffffffffffffffffffffffffffffffff1602179055005b600080fd5b34801561011257600080fd5b5061011b6101db565b6040516101289190610596565b60405180910390f35b34801561013d57600080fd5b5061014661023c565b005b34801561015457600080fd5b5061016f600480360381019061016a91906105e2565b6103bc565b60405161017c9190610650565b60405180910390f35b34801561019157600080fd5b5061019a6103fb565b6040516101a7919061068c565b60405180910390f35b3480156101bc57600080fd5b506101c561041f565b6040516101d29190610596565b60405180910390f35b60008060009054906101000a900473ffffffffffffffffffffffffffffffffffffffff1673ffffffffffffffffffffffffffffffffffffffff163373ffffffffffffffffffffffffffffffffffffffff161461023657600080fd5b47905090565b60008054906101000a900473ffffffffffffffffffffffffffffffffffffffff1673ffffffffffffffffffffffffffffffffffffffff163373ffffffffffffffffffffffffffffffffffffffff161461029457600080fd5b6001808054905010156102a657600080fd5b60006102b061041f565b9050600080600180549050836102c691906106d6565b9050600181815481106102dc576102db610707565b5b9060005260206000200160009054906101000a900473ffffffffffffffffffffffffffffffffffffffff1691508173ffffffffffffffffffffffffffffffffffffffff166108fc61032b6101db565b9081150290604051600060405180830381858888f19350505050158015610356573d6000803e3d6000fd5b50600067ffffffffffffffff81111561037257610371610736565b5b6040519080825280602002602001820160405280156103a05781602001602082028036833780820191505090505b50600190805190602001906103b6929190610459565b50505050565b600181815481106103cc57600080fd5b906000526020600020016000915054906101000a900473ffffffffffffffffffffffffffffffffffffffff1681565b60008054906101000a900473ffffffffffffffffffffffffffffffffffffffff1681565b6000444260018054905060405160200161043b93929190610786565b6040516020818303038152906040528051906020012060001c905090565b8280548282559060005260206000209081019282156104d2579160200282015b828111156104d15782518260006101000a81548173ffffffffffffffffffffffffffffffffffffffff021916908373ffffffffffffffffffffffffffffffffffffffff16021790555091602001919060010190610479565b5b5090506104df91906104e3565b5090565b5b808211156104fc5760008160009055506001016104e4565b5090565b600082825260208201905092915050565b7f74686973206973206e6f7420302e312065746865720000000000000000000000600082015250565b6000610547601583610500565b915061055282610511565b602082019050919050565b600060208201905081810360008301526105768161053a565b9050919050565b6000819050919050565b6105908161057d565b82525050565b60006020820190506105ab6000830184610587565b92915050565b600080fd5b6105bf8161057d565b81146105ca57600080fd5b50565b6000813590506105dc816105b6565b92915050565b6000602082840312156105f8576105f76105b1565b5b6000610606848285016105cd565b91505092915050565b600073ffffffffffffffffffffffffffffffffffffffff82169050919050565b600061063a8261060f565b9050919050565b61064a8161062f565b82525050565b60006020820190506106656000830184610641565b92915050565b60006106768261060f565b9050919050565b6106868161066b565b82525050565b60006020820190506106a1600083018461067d565b92915050565b7f4e487b7100000000000000000000000000000000000000000000000000000000600052601260045260246000fd5b60006106e18261057d565b91506106ec8361057d565b9250826106fc576106fb6106a7565b5b828206905092915050565b7f4e487b7100000000000000000000000000000000000000000000000000000000600052603260045260246000fd5b7f4e487b7100000000000000000000000000000000000000000000000000000000600052604160045260246000fd5b6000819050919050565b61078061077b8261057d565b610765565b82525050565b6000610792828661076f565b6020820191506107a2828561076f565b6020820191506107b2828461076f565b60208201915081905094935050505056fea2646970667358221220da34ccb2a1a47bf4176b0cd37a60d87ecbae3ef1840fe1b26e25875f6bb6d2c164736f6c63430008120033",
  "immutableReferences": {},
  "source": "// SPDX-License-Identifier: unlicensed\r\n\r\npragma solidity >=0.5.0 <0.9.0;\r\n\r\ncontract Lottery {\r\n    address public manager;\r\n    address payable[] public participants;\r\n\r\n    constructor() {\r\n        manager = msg.sender;\r\n    }\r\n\r\n    receive() external payable {\r\n        require(msg.value == 0.1 ether, \"this is not 0.1 ether\");\r\n        participants.push(payable(msg.sender));\r\n    }\r\n\r\n    function getBal() public view returns (uint) {\r\n        require(msg.sender == manager);\r\n        return address(this).balance;\r\n    }\r\n\r\n    function random() public view returns (uint) {\r\n        //prevrandao\r\n        return\r\n            uint(\r\n                keccak256(\r\n                    abi.encodePacked(\r\n                        block.prevrandao,\r\n                        block.timestamp,\r\n                        participants.length\r\n                    )\r\n                )\r\n            );\r\n    }\r\n\r\n    function selectWinner() public {\r\n        require(msg.sender == manager);\r\n        require(participants.length >= 1);\r\n        uint r = random();\r\n        address payable winner;\r\n        uint index = r % participants.length;\r\n        winner = participants[index];\r\n        winner.transfer(getBal());\r\n        participants = new address payable[](0);\r\n    }\r\n}\r\n",
  "sourcePath": "C:\\Users\\shahb\\Desktop\\react js\\truffle-typrscript\\contracts\\Lottery.sol",
  "compiler": {
    "name": "solc",
    "version": "0.8.18+commit.87f61d96.Emscripten.clang"
  },
  "schemaVersion": "3.4.16",
  "updatedAt": "2023-11-01T16:29:04.808Z",
  "networkType": "ethereum",
  "devdoc": {
    "kind": "dev",
    "methods": {},
    "version": 1
  },
  "userdoc": {
    "kind": "user",
    "methods": {},
    "version": 1
  }
}